:020000040800F2
:10000000880A0020450200084D0200084F0200083F
:1000100051020008530200085502000800000000C9
:10002000000000000000000000000000570200086F
:1000300059020008000000005B0200085D02000891
:100040005F0200085F0200085F0200085F0200080C
:100050005F0200085F0200085F0200085F020008FC
:100060005F0200085F0200085F0200085F020008EC
:100070005F0200085F0200085F0200085F020008DC
:100080005F0200085F0200085F0200080000000035
:100090000000000000000000000000005F020008F7
:1000A0005F0200085F0200085F0200085F020008AC
:1000B0005F0200085F020008D10C00085F02000820
:1000C0005F0200085F0200085F0200085F0200088C
:1000D0005F020008050D00085F0200080000000034
:1000E0005F0200085F0200085F02000800000000D5
:1000F0000000000000000000000000005F02000897
:10010000000000005F0200085F0200085F020008B4
:1001100000000000000000000000000000000000DF
:100120005F0200085F0200085F0200085F0200082B
:100130005F02000800000000000000000000000056
:100140000000000000000000000000005F02000846
:100150005F0200085F0200085F0200085F020008FB
:100160005F0200085F0200080000000000000000BD
:10017000000000000000000000000000000000007F
:10018000000000005F020008000000000000000006
:100190005F02000800F002F800F044F814A696E8A8
:1001A000000CB244B344DA4501D100F03BF8BAE8A0
:1001B0000F000FA696E83000A5EB040504EB060738
:1001C000AAEB0704A7F101074FEA15154FEA34140B
:1001D000A4F10104AC4201D300F024F813F0010FA4
:1001E00018BFFB1A43F0010300F001F8DBE71847E2
:1001F0002C1E00003C1E000070470000002300245D
:1002000000250026103A28BF78C1FBD8520728BF26
:1002100030C148BF0B6070471FB501F0F1FE1FBD34
:1002200010B510BD00F031F81146FFF7F5FF00F0F2
:10023000F7FF00F04FF803B4FFF7F2FF03BC00F044
:1002400057F800000948804709480047FEE7FEE7E5
:10025000FEE7FEE7FEE7FEE7FEE7FEE7FEE7FEE776
:1002600004480549054A064B70470000610C000828
:100270009501000888040020880A002088060020D4
:1002800088060020704770477047754600F02CF8CC
:10029000AE4605006946534620F00700854618B073
:1002A00020B5FFF7DDFFBDE820404FF000064FF01E
:1002B00000074FF000084FF0000BAC46ACE8C00957
:1002C000ACE8C009ACE8C009ACE8C00921F00701FE
:1002D0008D46704710B50446AFF300802046BDE858
:1002E0001040FFF7A8BF0000004870470000002042
:1002F00001491820ABBEFEE726000200704700004F
:1003000081B043F63001C4F20201086840F00100F8
:10031000086043F64401C4F20201086840F48070AA
:1003200008600021C4F20201086840F00C00086077
:1003300042F20801C4F20101086820F001000860DF
:1003400042F20402C4F20102106820F04070106012
:1003500042F21002C4F20102106820F0380010606E
:10036000106840F02000106042F23402C4F2010232
:10037000106820F01F001060106840F0010010604D
:1003800042F22C02C4F20102106820F470001060E6
:10039000086840F00100086000200090FFE7009826
:1003A000B0F57A7F05DAFFE7FFE7009801300090AB
:1003B000F5E701B07047000042F20801C4F2010104
:1003C000086840F080400860FFE742F20000C4F295
:1003D000010000688007002801D4FFE7F5E742F23A
:1003E0004C00C4F2010000686FF31F30704700003A
:1003F00080B586B08DF817009DF81700014603916F
:1004000020B1FFE7039801284BD064E01421C4F227
:100410000201086840F400600860086820F02000CD
:10042000086000200490FFE70499002044F2402275
:10043000C0F20F02914202901FD8FFE740F2104035
:10044000C4F2020001680020C9060029029014D4F9
:10045000FFE740F21040C4F2020001680020890664
:100460000029029009D4FFE740F26000C2F20000C8
:10047000007880F001000290FFE70298C00720B1E9
:10048000FFE7049801300490CEE71421C4F2020182
:10049000086820F400600860086820F00200086026
:1004A0001AE01421C4F202010191086840F0200012
:1004B0000860086820F40060086040F2DC5000F03A
:1004C00065FE0199086820F020000860086840F087
:1004D0000200086000E0FFE706B080BD81B0009038
:1004E0000099002008700099487000998870009960
:1004F000C8700099087101B07047000085B00020F5
:10050000029043F60002C4F20202116841F4803105
:1005100011600490FFE70498B0F5805F0FDAFFE701
:1005200043F60000C4F2020000688003002801D5F1
:10053000FFE704E0FFE7049801300490EBE743F69F
:100540000000C4F202000068800300280DD5FFE718
:100550000420039043F60401C4F20201086840F449
:10056000800008600020029023E043F60001C4F2FE
:100570000201086820F480300860086840F001003B
:100580000860FFE743F60000C4F20200006880073D
:10059000002801D4FFE7F5E70820039043F60401A3
:1005A000C4F20201086820F4800008600120029073
:1005B000FFE743F60401C4F202010191086820F04C
:1005C0003F000860039A086810430860086847F60F
:1005D000C07290430860086840F4285008600868BA
:1005E00020F440300860086840F4803008600868F3
:1005F00020F070600860086840F0E060086043F632
:100600000001C4F20201086840F080700860FFE752
:1006100043F60000C4F2020000688001002801D403
:10062000FFE7F5E743F60041C4F20201086820F055
:100630000F000860086840F00200086043F60801F7
:10064000C4F202010091086820F0F0000860086818
:1006500020F4E0500860086840F4805008600868A2
:1006600020F460400860086820F003000860086813
:1006700040F002000860FFE743F60800C4F2020001
:10068000006800F00C00082801D0FFE7F4E70298AA
:1006900005B0704782B000900098007838B9FFE745
:1006A0000098407818B9FFE70020019017E0009803
:1006B0000178407800EE101AB8EE400A01EE100AF8
:1006C000B8EE411A9FED082A20EE020A30EE010A28
:1006D000B2EE041A80EE010A8DED010AFFE79DEDEE
:1006E000010A02B0704700BF0000804383B0019050
:1006F0000198807838B9FFE70198C07818B9FFE70A
:100700000020029028E001988178C07801F07F01F4
:1007100000EE101AB8EEC00A01EE100AB8EE411A47
:100720009FED0F2A20EE020A30EE010AB2EE041A03
:1007300080EE010A8DED000A0198807800060028FD
:1007400007D5FFE79DED000AB1EE400A8DED000AE6
:10075000FFE700980290FFE79DED020A03B07047A3
:100760000000804380B543F63001C4F202010868FE
:1007700040F00100086000F08BF980BD80B586B0C4
:10078000049000208DF80F008DF80E000498FFF7FC
:10079000A5FE00F0A5F900F03DFD0290FFE700F096
:1007A00039FD0299401A00097C2801D8FFE7F6E7D5
:1007B00000F082F900F02EFD0290FFE700F02AFD24
:1007C0000299401A1D2801D8FFE7F7E700F060F909
:1007D0000120C82100F016FC38B9FFE70499E12098
:1007E000087000208DF8170092E00020C82100F06A
:1007F00009FC38B9FFE70499E220087000208DF861
:10080000170085E00120C82100F0FCFB38B9FFE7A4
:100810000499E320087000208DF8170078E000208C
:100820008DF80D00FFE79DF80D00272854DCFFE749
:100830000020C82100F0E6FB58B9FFE70499E42046
:1008400008709DF80D000499487000208DF817007D
:100850005EE000F0DFFC02900120C82100F0D2FB36
:1008600058B9FFE70499E52008709DF80D00049938
:10087000487000208DF817004AE000F0CBFC029988
:10088000401A15280ED3FFE79DF80E00C0F10701AE
:10089000012000FA01F304999DF80F20885C1843A9
:1008A0008854FFE79DF80E0001308DF80E009DF88A
:1008B0000E00082809D1FFE700208DF80E009DF8F2
:1008C0000F0001308DF80F00FFE7FFE79DF80D00E6
:1008D00001308DF80D00A6E7049908784B788A78E6
:1008E000C9781844104408448DF80700049800792A
:1008F0009DF80710884207D0FFE70498FFF7EEFD48
:1009000000208DF8170003E001208DF81700FFE7A5
:100910009DF8170006B080BD43F63001C4F2020115
:10092000086840F001000860086840F002000860B4
:10093000086840F0040008600021C4F20201086861
:1009400000F070500860086840F25152C0F2400256
:10095000104308600822C4F20202106840F2F33328
:1009600018431060086840F4201008602422C4F284
:100970000202106840F070001060106840F4E060FF
:100980001060086840F00C000860086840F4A0306F
:1009900008600421C4F20201086840F4C0700860D5
:1009A00040F20042C4F20202106800201060116898
:1009B0000023C5F2145319431160116821F440510A
:1009C0001160116821F44031116040F60001C4F259
:1009D00002010A68086008680522C0F2004210435C
:1009E000086001207047000080B582B043F64001E6
:1009F000C4F20201086840F00400086040F62801D3
:100A0000C4F200014AF20F40086040F62C01C4F223
:100A1000000140F2E730086040F60C01C4F200012A
:100A2000086840F0010008601E200190022100F0DB
:100A300061FB019800F024FB40F60001C4F20001C4
:100A4000086840F00100086002B080BD43F6400134
:100A5000C4F20201086840F0010008604FF08041D4
:100A6000002008602422C4F2000210602822C4F290
:100A70000002532010602C22C4F200024FF0FF301D
:100A800010601422C4F20002012010600860704758
:100A90000021C4F20201086820F4404008600C21E3
:100AA000C4F20201086820F440400860086840F47D
:100AB00080400860704700000021C4F2020108680D
:100AC00020F440400860086840F480400860142129
:100AD000C4F20201086840F080000860704700001E
:100AE0000021C4F20201086820F440400860086850
:100AF00040F4804008601421C4F20201086820F02C
:100B000080000860704700001020C4F202000068F6
:100B1000C0B2C0097047000040F20041C4F20001B9
:100B2000086840F0010008607047000080B543F697
:100B30003001C4F20201086840F00100086043F689
:100B40004001C4F20201086840F002000860002180
:100B5000C4F20201086820F440500860086840F4BC
:100B6000005008600821C4F20201086840F44050B7
:100B700008600C21C4F20201086820F440500860AB
:100B80002021C4F20201086820F070600860086843
:100B900040F00070086040F20041C4F200010868B3
:100BA00020F00100086040F22842C4F2000229202F
:100BB000106040F22C42C4F2000244F61F60106044
:100BC00040F21842C4F20002106820F003001060E6
:100BD000106840F060001060106840F0080010607D
:100BE00040F22042C4F20002106840F001001060A0
:100BF000106820F00200106040F21442C4F20002BB
:100C0000106840F001001060086840F001000860C2
:100C10004FF4FA6000F002F880BD000081B0ADF83A
:100C20000200BDF80200B0F57A7F05DAFFE74FF465
:100C30007A70ADF80200FFE7BDF80200B0F5FA6F78
:100C400005DDFFE74FF4FA60ADF80200FFE7BDF8FD
:100C5000020040F23441C4F20001086001B0704764
:100C60004EF68851CEF20001086840F4700008602A
:100C700043F60002C4F20202106840F00100106066
:100C800043F60801C4F202010020086011684FF623
:100C9000FF73CFF6F6631940116043F60403C4F204
:100CA000020343F21001C2F200411960116821F4FD
:100CB0008021116043F60C01C4F2020108604EF677
:100CC0000851CEF200014FF000600860704700004C
:100CD00040F61000C4F200000068C00788B1FFE7CA
:100CE00040F61001C4F20001086820F0010008601D
:100CF00040F61401C4F20201086880F001000860A7
:100D0000FFE7704780B582B041F20000C4F20100F5
:100D100000688006002801D4FFE7F3E041F20400F8
:100D2000C4F2010000688DF8070000F073FA40F289
:100D30006401C2F2000108609DF80700BF2822D1BB
:100D4000FFE740F2690CC2F2000C00208CF80000B2
:100D500040F28441C2F20001012008709DF80700B2
:100D600040F26801C2F20001097840F26A03C2F25F
:100D70000003692211FB02319CF80020531C8CF8FF
:100D800000308854BEE040F28440C2F20000007897
:100D9000C00708B9FFE7B5E040F26900C2F2000001
:100DA000007869280CDBFFE740F28441C2F20001C1
:100DB0000020087040F26901C2F200010870A1E051
:100DC0009DF8071040F26800C2F20000007840F27F
:100DD0006A03C2F20003692210FB023240F269008A
:100DE000C2F20000037803F1010C80F800C0D15476
:100DF00000780328C0F28680FFE740F26800C2F264
:100E00000000007840F26A02C2F20002692110FB81
:100E1000012080788DF806009DF8060065280CDB1F
:100E2000FFE740F28441C2F200010020087040F266
:100E30006901C2F20001087064E09DF80600053007
:100E40008DF8050000208DF804009DF80700FF28AC
:100E500004D1FFE701208DF80400FFE79DF80400AE
:100E6000C00700284DD0FFE740F28441C2F20001E4
:100E70000020087040F26901C2F20001087040F2DF
:100E80006800C2F20000007840F26A02C2F200027A
:100E9000692110FB012040788DF803009DF80300C4
:100EA00000F006010220B0EB510F17D1FFE740F22E
:100EB0006800C2F20000007840F26A02C2F200024A
:100EC000692110FB0120C078192807D1FFE740F203
:100ED0006001C2F2000101200870FFE740F26800E3
:100EE000C2F2000001780131017000780A2807DBA6
:100EF000FFE740F26801C2F2000100200870FFE73E
:100F0000FFE7FFE702B080BD80B582B0019043F6F5
:100F10004401C4F20201086840F01000086041F288
:100F20000C01C4F20101086820F400500860086850
:100F300020F4A050086041F21002C4F201021068CF
:100F400020F440501060019A4DF68060C0F280207D
:100F5000B0FBF2F041F20802C4F20102106008682E
:100F600040F024000860086840F008000860086845
:100F700040F4005008602520009000F069F80098C7
:100F8000012100F095F802B080BD000082B0019010
:100F9000ADF80210BDF8020008B9FFE730E000200C
:100FA000ADF80000FFE7BDF80000BDF80210884270
:100FB0001BDAFFE7FFE741F20000C4F2010000681E
:100FC0000006002801D4FFE7F5E70198BDF80010FE
:100FD000405C41F20401C4F201010860FFE7BDF882
:100FE00000000130ADF80000DDE7FFE741F200004E
:100FF000C4F2010000684006002801D4FFE7F5E7CD
:1010000002B0704780B584B08DF80E00029100F0F8
:1010100001F90190FFE7FFF777FD9DF80E10884278
:101020000DD1FFE700F0F6F80199401A02998842C5
:1010300004D3FFE700208DF80F0004E0EBE7012068
:101040008DF80F00FFE79DF80F0004B080BD000091
:1010500081B08DF803009DF9030000280ED4FFE74E
:101060009DF9031001F01F02012090404A094EF241
:101070000011CEF2000141F82200FFE701B07047F5
:1010800081B08DF803009DF9030000280ED4FFE71E
:101090009DF9031001F01F02012090404A094EF211
:1010A0000011CEF2000141F82200FFE701B07047C5
:1010B00082B08DF8070000919DF9070000280AD43E
:1010C000FFE7009800019DF907104EF20042CEF2B2
:1010D000000288540BE0009800019DF8071001F011
:1010E0000F014EF61452CEF200028854FFE702B010
:1010F0007047000082B08DF8070000919DF907004D
:1011000000280AD4FFE7009800019DF907104EF26D
:101110000042CEF2000288540BE0009800019DF8D6
:10112000071001F00F014EF61452CEF2000288545F
:10113000FFE702B07047000084B003908DF80B10F9
:101140008DF80A209DF80B009DF80A1008440190C4
:1011500000208DF80300FFE79DF803009DF80A10BA
:1011600088420EDAFFE703989DF80310415C01986E
:1011700008440190FFE79DF8030001308DF803005B
:10118000EAE79DF8040004B07047000082B00190C7
:10119000019841F2883148430090FFE70098411ED2
:1011A000009108B1FFE7F9E702B0704780B584B05D
:1011B00003908DF80B1001929DF80B10012000FA9E
:1011C00001F2039908681043086000F023F80090CA
:1011D000FFE700F01FF80099401A0199884201D2F8
:1011E000FFE7F6E79DF80B10012000FA01F20399E2
:1011F00008689043086000F00DF80090FFE700F0E9
:1012000009F80099401A0199884201D2FFE7F6E7F0
:1012100004B080BD2420C4F20000006870470000C4
:1012200080B58AB000200990FFF768F9FFF774FBDA
:101230001421C4F202010191086840F00100086025
:1012400040F61402C4F202020392106840F4005007
:101250001060086840F004000860086840F008006A
:101260000860086840F010000860FFF7BDFB4FF40D
:10127000E130FFF749FEFFF759FCFFF74DFCFFF7A0
:101280003FF8FFF76FFAFFF7E1FB0399086840F0BA
:10129000020008604FF4FA600290FFF7BFFC4FF4C1
:1012A0007A60FFF773FF0399086820F00200086076
:1012B0004FF47A70FFF7B2FC0298FFF767FF0399CB
:1012C000086840F00200086040F2DC50FFF7A6FC1E
:1012D0000298FFF75BFF0399086820F0020008609E
:1012E00040F21441C4F20201086820F40070086062
:1012F000FFE740F26800C2F20000007840F285414A
:10130000C2F200010978884203D0FFE700F046F9F5
:10131000FFE740F28440C2F200000078C007D0B37B
:10132000FFE7FFF777FF0890089840F26401C2F2E8
:1013300000010968401A48F2A061C0F20101884228
:1013400028D3FFE740F28441C2F200010020087078
:1013500040F26900C2F200000078012819DBFFE7C3
:1013600040F26800C2F2000001780131017000789B
:101370000A2807DBFFE740F26801C2F20001002003
:101380000870FFE740F26901C2F200010020087016
:10139000FFE7FFE7FFE740F26100C2F200000078DC
:1013A000C007002867D0FFE700208DF81C000690DA
:1013B00006A80090FFF79AF900988DED050AFFF74F
:1013C00069F98DED040A9DED050AB2EE0E1AB4EE30
:1013D000410AF1EE10FA04DCFFE70020FFF708F8FD
:1013E0000EE09DED050A9FED241AB4EE410AF1EEE0
:1013F00010FA04DBFFE70120FEF7FAFFFFE7FFE743
:101400009DED050AB2EE041AB4EE410AF1EE10FAAF
:1014100008DCFFE71421C4F20201086820F0040090
:10142000086012E09DED050AB3EE041AB4EE410A1D
:10143000F1EE10FA08DBFFE71421C4F2020108689C
:1014400040F004000860FFE7FFE79DED040A9FED10
:101450000B1AB4EE410AF1EE10FA0BDDFFE70120A2
:10146000FEF7C6FF46F2A810FFF790FE0020FEF739
:10147000BFFFFFE7FFE73CE700000C420000B4427B
:1014800080B588B08DF81B00059104928DF80F305F
:101490009DF81B0000F003000146029103286CD860
:1014A0000299DFE801F0021C365040F21440C4F209
:1014B0000200016841F480610160059A049B9DF877
:1014C0000F10EC46CCF800100C219FED2F0ADFED39
:1014D000310A9FED311A00F065FC079050E040F2B0
:1014E0001440C4F20200016821F480610160059A91
:1014F000049B9DF80F10EC46CCF800100C219FEDDA
:10150000220ADFED240A9FED241A00F04BFC07901D
:1015100036E040F21440C4F20200016841F4804118
:101520000160059A049B9DF80F10EC46CCF8001062
:101530000F219FED150ADFED150A9FED151A00F03A
:1015400031FC07901CE040F21440C4F20200016834
:1015500021F480410160059A049B9DF80F10EC4630
:10156000CCF800100F219FED080ADFED080A9FED6F
:10157000081A00F017FC079002E000200790FFE730
:10158000079808B080BD00BF00803B4500401C4666
:1015900000409C4500606A460000FA4580B5BEB038
:1015A00000202290FFE72298682816DCFFE740F22F
:1015B0008540C2F20000007840F26A02C2F20002E6
:1015C000692110FB0120229A805C0DF18F01885463
:1015D000FFE7229801302290E5E740F28540C2F211
:1015E0000000037840F26A02C2F20002692113FB94
:1015F00001239B788DF88730037813FB01235B78F8
:101600008DF88630037813FB012303332093007891
:1016100010FB01219DF887000844C0788DF87F00F9
:1016200020989DF886109DF88720FFF785FD8DF89E
:101630007E009DF87E009DF87F10884204D0FFE771
:10164000002000F081FC7EE39DF88600C00708B909
:10165000FFE778E39DF88600C0F3410001460B9157
:1016600020B1FFE70B98022879D067E39DF8860048
:10167000C0F3C2008DF87D009DF87D0001460A91FF
:10168000012808D0FFE70A9802283CD0FFE70A9813
:1016900003284BD05EE040F21041C4F2020108681A
:1016A000012222EA0000D1F800C0022323EA0C0341
:1016B0001844D1F800C0042323EA0C031844D1F8DD
:1016C00000C0082323EA0C031844D1F800C01023FB
:1016D00023EA0C031844D1F800C0202323EA0C03AA
:1016E00018440968CB43402101EA530108448DF8AE
:1016F0007C009DF87C008DF87B000A200DF17B01B9
:1017000000F038FC2AE0FEF757FEADF878009DF8AF
:1017100079008DF87600BDF878008DF877001220FA
:101720000DF17601022200F025FC17E000208DF873
:1017300074001C901CA8FFF721F830B1FFE71A20B5
:101740001CA9052200F016FC03E0042000F0FCFBBD
:10175000FFE703E0032000F0F7FBFFE7F2E2209849
:1017600000788DF86F0001208DF86E009DF86F00F5
:10177000013801460991182800F2D0820999DFE862
:1017800011F0190021002900370045004E005700D4
:101790005F0067007D00C400CC00D400FD0026017E
:1017A00039015F01AF01010208020F021E02CD02E2
:1017B000CD024F021421C4F20201086820F001009A
:1017C0000860B2E21421C4F20201086840F001008E
:1017D0000860AAE21421C4F20201086820F00400A3
:1017E000086040F26101C2F20001002008709CE232
:1017F0001421C4F20201086840F00400086040F2BD
:101800006101C2F20001002008708EE240F614016E
:10181000C4F20201086820F40050086085E240F636
:101820001401C4F20201086840F4005008607CE230
:101830001421C4F20201086820F00800086074E274
:101840001421C4F20201086840F0080008606CE24C
:101850001421C4F202010891086840F020000860D9
:10186000086820F40060086040F2DC50FFF78EFC4E
:101870000899086820F02000086056E21421C4F29C
:101880000201086840F400600860086820F0200049
:10189000086000201A90FFE71A99002044F24022C5
:1018A000C0F20F02914207901FD8FFE740F21040AC
:1018B000C4F2020001680020C9060029079014D470
:1018C000FFE740F21040C4F20200016800208906E0
:1018D0000029079009D4FFE740F26000C2F200003F
:1018E000007880F001000790FFE70798C00720B15B
:1018F000FFE71A9801301A90CEE71421C4F20201D2
:10190000086820F4006008600FE21421C4F20201AC
:10191000086820F01000086007E21421C4F20201F8
:10192000086840F010000860FFE140F21441C4F282
:101930000201086820F400700860002045F6785124
:10194000C0F20201069140F20042C4F202020223F8
:10195000FFF796FD06991990199888420DD3FFE775
:1019600003208DF863000E200DF16301012200F0C9
:1019700001FB00208DF86E00FFE7D6E1012045F65F
:101980007851C0F20201059140F20042C4F2020215
:101990000323FFF775FD0599179040F21442C4F236
:1019A0000202106840F400701060179888420DD34E
:1019B000FFE704208DF85B000E200DF15B01012292
:1019C00000F0D8FA00208DF86E00FFE7ADE140F29C
:1019D0001441C4F20201086820F40050086002209B
:1019E0004FF4FA5140F20042C4F202020823FFF71A
:1019F00047FD9AE103204FF4FA5140F20042C4F24D
:101A000002020723FFF73CFD159040F21441C4F297
:101A10000201086840F4005008601598B0F5FA5FBC
:101A20000DD3FFE707208DF853000E200DF1530171
:101A3000012200F09FFA00208DF86E00FFE774E1AC
:101A40004FF47A700490FFF7E9F84FF4FA70FFF75B
:101A50009DFB0498FFF7E2F8FFF7DCFB13900020F2
:101A60008DF84B00FFE7FFF7D5FB1399411A0020D3
:101A70004EF2BF12C0F2E4029142039009D8FFE790
:101A800040F26000C2F20000007880F00100039094
:101A9000FFE70398C00768B1FFE740F21040C4F2C7
:101AA00002000068C00720B9FFE701208DF84B0055
:101AB00000E0D8E740F2DC50FFF7B0F89DF84B00AB
:101AC000C00760B9FFE701228DF84A200E200DF112
:101AD0004A0100F04FFA00208DF86E00FFE724E184
:101AE0004FF4FA600290FFF799F84FF4FA70FFF79D
:101AF0004DFB0298FFF792F8FFF78CFB1190002046
:101B00008DF84300FFE7FFF785FB1199411A00208C
:101B100048F23F12C0F2BA129142019009D8FFE791
:101B200040F26000C2F20000007880F001000190F5
:101B3000FFE70198C00770B1FFE740F21040C4F220
:101B4000020000688007002804D4FFE701208DF818
:101B5000430000E0D7E740F2DC50FFF75FF89DF864
:101B60004300C00768B9FFE702208DF842000E204D
:101B70000DF14201012200F0FDF900208DF86E0008
:101B8000FFE7D2E040F26101C2F2000101200870DB
:101B9000CBE040F26101C2F2000100200870C4E015
:101BA00040F21441C4F20201086840F40070086079
:101BB0003221002318461A46FFF762FCB5E04FF4C5
:101BC000FA60FFF72BF840F21441C4F202010868F2
:101BD00020F400700860002045F67851C0F2020140
:101BE000009140F20042C4F202020223FFF748FCD7
:101BF0000F9040F2DC50FFF711F800990F988842DF
:101C00000DD3FFE703208DF83B000E200DF13B01C3
:101C1000012200F0AFF900208DF86E00FFE784E0AC
:101C200040F26001C2F200010120087000F084F966
:101C3000FFE740F26000C2F200000078C007002811
:101C400068D0FFE740F26800C2F20000007840F27E
:101C50008541C2F20001097888425AD0FFE740F27C
:101C60008540C2F20000037840F26A02C2F200022C
:101C7000692113FB01235B788DF83A30007810FB63
:101C80000120C0788DF8390000200D90FFE70D98F5
:101C9000682814DCFFE740F28540C2F200000078BB
:101CA00040F26A02C2F20002692110FB01210D9A82
:101CB00000208854FFE70D9801300D90E7E740F2CF
:101CC0008540C2F2000001780131017000780A28D5
:101CD00007DBFFE740F28541C2F2000100200870F7
:101CE000FFE79DF83A0000F006010220B0EB510F2B
:101CF0000ED1FFE79DF839001A2809D1FFE740F21D
:101D00006001C2F200010020087000F015F9FFE741
:101D1000FFE78EE700208DF86E0006E0032000F05C
:101D200013F900208DF86E00FFE79DF86E00C007E4
:101D300018B1FFE700F000F9FFE703E0032000F02F
:101D400003F9FFE7FFE700200C90FFE70C986828F5
:101D500014DCFFE740F28540C2F20000007840F258
:101D60006A02C2F20002692110FB01210C9A0020D4
:101D70008854FFE70C9801300C90E7E740F285406B
:101D8000C2F2000001780131017000780A2807DBF7
:101D9000FFE740F28541C2F2000100200870FFE732
:101DA0003EB080BD80B58EB084461098CDF830C06E
:101DB0008DF82F100A928DED090ACDED080A8DEDF0
:101DC000071A06938DF817000A9818B9FFE7002044
:101DD0000D90ACE00020049009980390FFE79DED82
:101DE000030A9DED081AB4EE410AF1EE10FA0EDA7C
:101DF000FFE79DED071A9DED030A81EE001A30EE14
:101E0000010A8DED030A049801300490E7E7049875
:101E10000A99884203D9FFE70A980490FFE7002057
:101E20000290099903910190FFE701980499884273
:101E300047D2FFE740F26000C2F200000078C0071E
:101E400018B1FFE702980D9071E00C989DF82F10E3
:101E50009DED031A9FED370A80EE010ABCEEC00A21
:101E600010EE102AFFF7A2F90298013002909DEDC2
:101E7000071A9DED030A81EE001A30EE010A8DED7E
:101E8000030A9DED030A9DED081AB4EE410AF1EE36
:101E900010FA03DDFFE708980390FFE7069858B1B2
:101EA000FFE7069800699DF81710C840C00718B9E9
:101EB000FFE702980D903AE0FFE7019801300190AA
:101EC000B3E79DED081A9FED1B0A80EE010ABCEEF8
:101ED000C00A8DED000AFFE702980A99884223D2D2
:101EE000FFE740F26000C2F200000078C00718B1BE
:101EF000FFE702980D901AE00C989DF82F10009AB9
:101F0000FFF754F9029801300290069858B1FFE7A4
:101F1000069800699DF81710C840C00718B9FFE778
:101F200002980D9003E0D7E702980D90FFE70D9817
:101F30000EB080BD0024744980B5402000221146B7
:101F400000F018F880BD000080B582B08DF8070061
:101F5000C0200022114600F00DF89DF807008DF812
:101F6000060006200DF10601012200F003F802B080
:101F700080BD000080B59EB08DF877001C918DF873
:101F80006F20BF208DF806009DF877008DF80700C0
:101F90009DF86F008DF8080000208DF80500FFE720
:101FA0009DF805009DF86F1088420FDAFFE71C9836
:101FB0009DF80510405C0DF106021144C870FFE762
:101FC0009DF8050001308DF80500E9E71C989DF8A3
:101FD00077109DF86F20FFF7AFF801469DF86F204E
:101FE0000DF106000244D1709DF86F100A18FF2110
:101FF00011719DF86F100531FEF7C8FF1EB080BD4E
:10200000F1EE100A4FF6FF71C0F2C03120EA010074
:1020100040F04070E1EE100A704700002C200008EC
:0C20200000000020880A0000FC010008FD
:0400000508000245A8
:00000001FF
